:100000000A128A11E72FFF1B0D2883137F1883170D
:100010000008840A0319FF0A080000308A00040857
:10002000840A82070034013400340A340034643412
:100030000034E834033410342734413462346434F7
:1000400075346C346C34613468343634343432345E
:100050003134303430343234373400345A34753437
:100060006834613469347234203436343434323490
:100070003334303431343134343400345034723425
:100080006F346A3465346334743420344D34453409
:100090004434493450344F344C3400344E346F348B
:1000A0002034533465346E3473346F3472342034F6
:1000B00046346F3475346E346434003443346C34F5
:1000C000693463346B34203442347534743474349A
:1000D0006F346E34203474346F3400344D346934EA
:1000E000633472346F34703472346F346334653413
:1000F000733473346F3472340034483475346D346F
:10010000693464346934743479343A3420342534AD
:1001100064340034543465346D3470343A342034EB
:1001200025346434433400346334683465346334D0
:100130006B342E342E3400344534723472346F34C0
:060140007234213400348A
:1004340064008001840A04060319003404061B2A9C
:1004440083120313081F282A013008000510003006
:1004540008007E088A007F0882002B220A128A1173
:100464008000840A04087D0603190034FF0A031976
:10047400FE0A2F2A83120313A0001430200203184B
:1004840008004D2A20175B2A1430492A5430FD00F5
:100494007D08A0075B2A7C08003A03195B2A013A0D
:1004A4000319442A033A0319462A013A0319482A2C
:1004B4005B2AA017F50120080A128A1110230800EC
:1004C4007808790403198F2AFD01FD0AF91B762A9D
:1004D40001300310F80DF90DFF3E031D6B2A0130A6
:1004E400FC007C08FD07682A79087B02031D7C2A2E
:1004F40078087A02031C842A7808FA027908031C13
:10050400FB03FB0201300310F90CF80CFF3E031D42
:10051400852A0130FD02031D762A7B08F9007A083A
:10052400F8000800F501F601700871040319CB2ADC
:10053400F701F70AF11BAA2A01300310F00DF10D9F
:10054400FF3E031D9F2A0130F4007408F7079C2A1C
:1005540001300310F50DF60DFF3E031DAB2A7108A3
:100564007302031DB72A70087202031CC02A7008A4
:10057400F2027108031CF303F30275140130031033
:10058400F10CF00CFF3E031DC12A0130F702031DDC
:10059400AA2A7608F1007508F00008000C34123419
:1005A40012340C3400340034003400340034043485
:1005B4000E341F340E340434003400340434043450
:1005C400043404341F340E34043400340A3415342F
:1005D40011340A3404340034003400340A341F342F
:1005E4001F340E3404340034003400340034003436
:1005F4000034003400340034003400340034003457
:100604000034003400340034003400340034003446
:10061400003400340034003400340034FA007A0822
:10062400F60004300310F60CFF3E031D142B76086D
:10063400F7007708F8007A080F39F6007608F90011
:100644007508031D292B8312031386112C2B831287
:10065400031386152D2B8312031308160808F0398B
:100664007804F6007608FB007B088800392B3A2BC7
:1006740000008312031308123F2B402B0000831247
:10068400031308160808F0397904F6007608FB000D
:100694007B0888004D2B4E2B000083120313081295
:1006A400532B542B00000A128A1159230800F40119
:1006B4000F30F000700883160313880483120313A9
:1006C40006158611652B831203130816692B8312F2
:1006D40003130808F0007008F4007408F0000330F5
:1006E4000310F00DFF3E031D722B0310700DF1007B
:1006F4007108F4007D2B831203130812812B822BC3
:100704000000831203130816872B831203130808AF
:10071400F0007008F3000F30F0007008F30574085F
:100724007304F0007008F40074088039F000700855
:10073400F2009C2B831203130812A02BA12B0000A0
:100744007208031D652B831203130611F030F000A9
:10075400700883160313880508007D0883120313A9
:10076400FF007C0884000A128A1103200A128A11ED
:10077400003A031908007D0883120313FF007C0864
:1007840084000A128A1103200A128A11253A031DD1
:10079400EF2B0130FC070318FD0A7D08FF007C08DD
:1007A40084000A128A1103200A128A11D03EA00082
:1007B4002008A100A11BE72B2108803A783E0318EA
:1007C400E72BF501F50A2108FC2BF501F50A253084
:1007D4000A128A1110230A128A11F501F50A7D08FA
:1007E40083120313FF007C0884000A128A11032079
:1007F4000A128A110A128A1110230A128A1101306C
:10080400FC070318FD0AAF2B83120313A000C330A7
:10081400FD00CD30FC00FC0B0D2CFD0B0D2CF0303D
:10082400FC007C0883160313880508128611061140
:10083400F030FC007C0883120313880508120611AB
:100844008611242C8312031308168814292C2A2CAD
:1008540000008312031308122F2C302C00000A12FC
:100864008A1159230A128A11F50128300A128A11B1
:1008740010230A128A11F5018312031320080C387D
:100884000A128A1110230A128A11F50140300A1241
:100894008A1110230A128A1183120313A101403012
:1008A400210203180800F501F50A2108903E84008E
:1008B400831700080A128A1110230A128A110130C0
:1008C400FC007C0883120313A107512C00300A1288
:1008D4008A1106240A128A1183160313071183123C
:1008E40003130715831603130510871202308316AA
:1008F4000313D1004530D000A930CF00CF0B802C9A
:10090400D00B802CD10B802CFC0100300A128A11F0
:100914003C220A128A115C30FC008030FD000A126D
:100924008A11AF230A128A11FC01FC0A00300A1250
:100934008A113C220A128A112C30FC008030FD00FE
:100944000A128A11AF230A128A110D308316031377
:10095400D100AF30D000B530CF00CF0BAF2CD00BCF
:10096400AF2CD10BAF2CB62CF50101300A128A1131
:1009740010230A128A11FC0100300A128A113C2247
:100984000A128A110B30FC008030FD000A128A1111
:10099400AF230A128A11FC01FC0A00300A128A11E0
:1009A4003C220A128A111C30FC008030FD000A121D
:1009B4008A11AF230A128A110D3083160313D10052
:1009C400AF30D000B530CF00CF0BE62CD00BE62CE7
:1009D400D10BE62CED2CF50101300A128A111023FB
:1009E4000A128A110A128A1122220A128A11003A60
:1009F4000319022D0A128A110E260A128A112A2DAF
:100A0400F50101300A128A1110230A128A11FC011D
:100A140000300A128A113C220A128A114C30FC005E
:100A24008030FD000A128A11AF230A128A11FC01D8
:100A3400FC0A00300A128A113C220A128A118230FE
:100A4400FC008030FD000A128A11AF230A128A11B9
:100A54000D3083160313D100AF30D000B530CF0072
:100A6400CF0B322DD00B322DD10B322D392DF42C4E
:100A740083120313AB002130A3002308A600013026
:100A8400A007FF30200784000A128A110D200A12E1
:100A94008A11A3002308AC002C080319092E253061
:100AA4002C060319612D2C08A3002B0884002308AD
:100AB400831380000130A3002308AB07412DA70155
:100AC4000130A007FF30200784000A128A110D208C
:100AD4000A128A11AC00003A0319092E643A031968
:100AE400772D0D3A0319772D412D260884008313A1
:100AF4000008A900840A0008AA000230A300230801
:100B0400A607AA1F8E2D0330A3002308A704A90952
:100B1400AA09A90A0319AA0AAC01AC0A05302C06D1
:100B24000319B52D2C08A3002307013E84000A12E3
:100B34008A110D200A128A11A4000A128A110D20AA
:100B44000A128A11A50025082A02031DAB2D2408C8
:100B54002902031CB52D0130A3002308AC0705307E
:100B64002C06031D942D270803390319C42D2D3099
:100B7400A3002B0884002308831380000130A30002
:100B84002308AB072C08A3002308A800FF30A30008
:100B94002308A807280A0319412D0A30F800003059
:100BA400F9002808A3002307013E84000A128A11D1
:100BB4000D200A128A11F0000A128A110D200A125D
:100BC4008A11F1002A08F3002908F2000A128A1196
:100BD40094220A128A117108FB007008FA000A12A2
:100BE4008A1162220A128A117808303E8312031392
:100BF400A4002408AC002C08A3002B0884002308BC
:100C0400831380000130A3002308AB07C82D2B08F1
:100C14008400831380010800F50101300A128A114F
:100C240010230A128A110A128A11E8260A128A115A
:100C3400003A031D462EF50101300A128A111023D1
:100C44000A128A11FC0100300A128A113C220A128B
:100C54008A118A30FC008030FD000A128A11AF2309
:100C64000A128A11FC01FC0A00300A128A113C2281
:100C74000A128A113C30FC008030FD000A128A11ED
:100C8400AF230A128A11D82E783083120313AD00D1
:100C94002D08A000831603134D0883120313AE001E
:100CA400AF012E08A1002F08A20030300A128A11C9
:100CB4003A250A128A116B3083120313AD002D08F2
:100CC400A000831603134E0883120313AE00AF0172
:100CD4002E08A1002F08A20050300A128A113A25CA
:100CE4000A128A11FC0100300A128A113C220A12EB
:100CF4008A113030FC000030FD000A128A11AF2343
:100D04000A128A11FC01FC0A00300A128A113C22E0
:100D14000A128A115030FC000030FD000A128A11B8
:100D2400AF230A128A112130831603134D02031CC8
:100D3400C22E83120313871205140830831203137F
:100D4400AF009D30AE000530AD00AD0BA72EAE0B4D
:100D5400A72EAF0BA72E831203130510083083129E
:100D64000313AF009D30AE000530AD00AD0BB82EBF
:100D7400AE0BB82EAF0BB82E831203130514D42E6A
:100D84008312031387160510083083120313AF0070
:100D94009D30AE000530AD00AD0BCE2EAE0BCE2E89
:100DA400AF0BCE2E83120313871205100D3083125E
:100DB4000313AF00AF30AE00B530AD00AD0BE02E85
:100DC400AE0BE02EAF0BE02EE72E0800F401283026
:100DD40074020318FA2E7408A03E84008313800161
:100DE4000130F0007008F40728307402031CED2E63
:100DF4008312031388128316031388128230F100BE
:100E0400DD30F000F00B042FF10B042F092F8316B3
:100E140003138816F50183120313881E2B2F013048
:100E2400F0007008F507162F172F000050307506D4
:100E3400031D0D2F003008000130F0007008F50785
:100E4400232F242F0000B4307506031D2B2F0030F0
:100E5400080083120313881A3D2F1E2F0130F0005F
:100E64007008F507352F362F000050307506031D26
:100E74003D2F0030080083120313881A302FF60127
:100E8400283076020318942F881E462F10168E01E0
:100E94008F011014881A4C2F10100E08F000F10165
:100EA4007008F9007108FA000F08F000F1017008E9
:100EB400F100F00179087004F2007A087104F3007B
:100EC4007208F9007308FA000310790DF9007A0D1D
:100ED400FA0000307A02383003197902031C7F2F9C
:100EE40000307A0246300319790203187F2F7608FE
:100EF400A03E8400831380018C2F00307A02973047
:100F040003197902031C8C2F7608A03E84008313F6
:100F14008001800A0130F0007008F607283076025C
:100F2400031C462F83160313CD01CE01F7010830AD
:100F340077020318BE2F7708A03E840083130003B2
:100F4400031DB62F0130F0007703FF3A073E013E40
:100F5400AD2F0310F00DFF3E031DAB2F7008F10001
:100F6400710883160313CE040130F0007008F707EC
:100F740008307702031C9D2FF8010830780203180B
:100F8400E52F7808103EA03E840083130003031D60
:100F9400DD2F0130F0007803FF3A073E013ED42FE5
:100FA4000310F00DFF3E031DD22F7008F1007108ED
:100FB40083160313CD040130F0007008F8070830DD
:100FC4007802031CC32F013008008317D030FD00C2
:100FD4000230FE00D030FF00903084000A128A11E3
:100FE4002F220A128A118313A0308400CF300A12F0
:0C0FF4008A111A2283010A128A11682C4B
:02400E00723FFF
:00000001FF
